{
    "_format": "hh-sol-artifact-1",
    "contractName": "DolphinNFT",
    "sourceName": "contracts/DolphinNFT.sol",
    "abi": [
        {
            "inputs": [
                {
                    "internalType": "string",
                    "name": "_initBaseURI",
                    "type": "string"
                }
            ],
            "stateMutability": "nonpayable",
            "type": "constructor"
        },
        {
            "anonymous": false,
            "inputs": [
                {
                    "indexed": true,
                    "internalType": "address",
                    "name": "owner",
                    "type": "address"
                },
                {
                    "indexed": true,
                    "internalType": "address",
                    "name": "approved",
                    "type": "address"
                },
                {
                    "indexed": true,
                    "internalType": "uint256",
                    "name": "tokenId",
                    "type": "uint256"
                }
            ],
            "name": "Approval",
            "type": "event"
        },
        {
            "anonymous": false,
            "inputs": [
                {
                    "indexed": true,
                    "internalType": "address",
                    "name": "owner",
                    "type": "address"
                },
                {
                    "indexed": true,
                    "internalType": "address",
                    "name": "operator",
                    "type": "address"
                },
                {
                    "indexed": false,
                    "internalType": "bool",
                    "name": "approved",
                    "type": "bool"
                }
            ],
            "name": "ApprovalForAll",
            "type": "event"
        },
        {
            "anonymous": false,
            "inputs": [
                {
                    "indexed": true,
                    "internalType": "address",
                    "name": "previousOwner",
                    "type": "address"
                },
                {
                    "indexed": true,
                    "internalType": "address",
                    "name": "newOwner",
                    "type": "address"
                }
            ],
            "name": "OwnershipTransferred",
            "type": "event"
        },
        {
            "anonymous": false,
            "inputs": [
                {
                    "indexed": true,
                    "internalType": "address",
                    "name": "from",
                    "type": "address"
                },
                {
                    "indexed": true,
                    "internalType": "address",
                    "name": "to",
                    "type": "address"
                },
                {
                    "indexed": true,
                    "internalType": "uint256",
                    "name": "tokenId",
                    "type": "uint256"
                }
            ],
            "name": "Transfer",
            "type": "event"
        },
        {
            "inputs": [
                {
                    "internalType": "address",
                    "name": "to",
                    "type": "address"
                },
                {
                    "internalType": "uint256",
                    "name": "tokenId",
                    "type": "uint256"
                }
            ],
            "name": "approve",
            "outputs": [],
            "stateMutability": "nonpayable",
            "type": "function"
        },
        {
            "inputs": [
                {
                    "internalType": "address",
                    "name": "owner",
                    "type": "address"
                }
            ],
            "name": "balanceOf",
            "outputs": [
                {
                    "internalType": "uint256",
                    "name": "",
                    "type": "uint256"
                }
            ],
            "stateMutability": "view",
            "type": "function"
        },
        {
            "inputs": [],
            "name": "cost",
            "outputs": [
                {
                    "internalType": "uint64",
                    "name": "",
                    "type": "uint64"
                }
            ],
            "stateMutability": "view",
            "type": "function"
        },
        {
            "inputs": [
                {
                    "internalType": "uint256",
                    "name": "_mintNum",
                    "type": "uint256"
                }
            ],
            "name": "createRandomNFT",
            "outputs": [],
            "stateMutability": "payable",
            "type": "function"
        },
        {
            "inputs": [
                {
                    "internalType": "uint256",
                    "name": "tokenId",
                    "type": "uint256"
                }
            ],
            "name": "getApproved",
            "outputs": [
                {
                    "internalType": "address",
                    "name": "",
                    "type": "address"
                }
            ],
            "stateMutability": "view",
            "type": "function"
        },
        {
            "inputs": [
                {
                    "internalType": "address",
                    "name": "owner",
                    "type": "address"
                },
                {
                    "internalType": "address",
                    "name": "operator",
                    "type": "address"
                }
            ],
            "name": "isApprovedForAll",
            "outputs": [
                {
                    "internalType": "bool",
                    "name": "",
                    "type": "bool"
                }
            ],
            "stateMutability": "view",
            "type": "function"
        },
        {
            "inputs": [],
            "name": "maxMintWhitelisted",
            "outputs": [
                {
                    "internalType": "uint256",
                    "name": "",
                    "type": "uint256"
                }
            ],
            "stateMutability": "view",
            "type": "function"
        },
        {
            "inputs": [],
            "name": "maxSupply",
            "outputs": [
                {
                    "internalType": "uint64",
                    "name": "",
                    "type": "uint64"
                }
            ],
            "stateMutability": "view",
            "type": "function"
        },
        {
            "inputs": [],
            "name": "name",
            "outputs": [
                {
                    "internalType": "string",
                    "name": "",
                    "type": "string"
                }
            ],
            "stateMutability": "view",
            "type": "function"
        },
        {
            "inputs": [],
            "name": "normalSaleIsActive",
            "outputs": [
                {
                    "internalType": "bool",
                    "name": "",
                    "type": "bool"
                }
            ],
            "stateMutability": "view",
            "type": "function"
        },
        {
            "inputs": [],
            "name": "owner",
            "outputs": [
                {
                    "internalType": "address",
                    "name": "",
                    "type": "address"
                }
            ],
            "stateMutability": "view",
            "type": "function"
        },
        {
            "inputs": [
                {
                    "internalType": "uint256",
                    "name": "tokenId",
                    "type": "uint256"
                }
            ],
            "name": "ownerOf",
            "outputs": [
                {
                    "internalType": "address",
                    "name": "",
                    "type": "address"
                }
            ],
            "stateMutability": "view",
            "type": "function"
        },
        {
            "inputs": [
                {
                    "internalType": "bool",
                    "name": "_state",
                    "type": "bool"
                }
            ],
            "name": "pause",
            "outputs": [],
            "stateMutability": "nonpayable",
            "type": "function"
        },
        {
            "inputs": [],
            "name": "paused",
            "outputs": [
                {
                    "internalType": "bool",
                    "name": "",
                    "type": "bool"
                }
            ],
            "stateMutability": "view",
            "type": "function"
        },
        {
            "inputs": [],
            "name": "renounceOwnership",
            "outputs": [],
            "stateMutability": "nonpayable",
            "type": "function"
        },
        {
            "inputs": [],
            "name": "revealed",
            "outputs": [
                {
                    "internalType": "bool",
                    "name": "",
                    "type": "bool"
                }
            ],
            "stateMutability": "view",
            "type": "function"
        },
        {
            "inputs": [
                {
                    "internalType": "address",
                    "name": "from",
                    "type": "address"
                },
                {
                    "internalType": "address",
                    "name": "to",
                    "type": "address"
                },
                {
                    "internalType": "uint256",
                    "name": "tokenId",
                    "type": "uint256"
                }
            ],
            "name": "safeTransferFrom",
            "outputs": [],
            "stateMutability": "nonpayable",
            "type": "function"
        },
        {
            "inputs": [
                {
                    "internalType": "address",
                    "name": "from",
                    "type": "address"
                },
                {
                    "internalType": "address",
                    "name": "to",
                    "type": "address"
                },
                {
                    "internalType": "uint256",
                    "name": "tokenId",
                    "type": "uint256"
                },
                {
                    "internalType": "bytes",
                    "name": "_data",
                    "type": "bytes"
                }
            ],
            "name": "safeTransferFrom",
            "outputs": [],
            "stateMutability": "nonpayable",
            "type": "function"
        },
        {
            "inputs": [
                {
                    "internalType": "address",
                    "name": "operator",
                    "type": "address"
                },
                {
                    "internalType": "bool",
                    "name": "approved",
                    "type": "bool"
                }
            ],
            "name": "setApprovalForAll",
            "outputs": [],
            "stateMutability": "nonpayable",
            "type": "function"
        },
        {
            "inputs": [
                {
                    "internalType": "string",
                    "name": "_newBaseURI",
                    "type": "string"
                }
            ],
            "name": "setBaseURI",
            "outputs": [],
            "stateMutability": "nonpayable",
            "type": "function"
        },
        {
            "inputs": [
                {
                    "internalType": "uint64",
                    "name": "_newCost",
                    "type": "uint64"
                }
            ],
            "name": "setCost",
            "outputs": [],
            "stateMutability": "nonpayable",
            "type": "function"
        },
        {
            "inputs": [
                {
                    "internalType": "uint64",
                    "name": "_maxSupply",
                    "type": "uint64"
                }
            ],
            "name": "setMaxSupply",
            "outputs": [],
            "stateMutability": "nonpayable",
            "type": "function"
        },
        {
            "inputs": [
                {
                    "internalType": "bool",
                    "name": "_state",
                    "type": "bool"
                }
            ],
            "name": "setNormalSale",
            "outputs": [],
            "stateMutability": "nonpayable",
            "type": "function"
        },
        {
            "inputs": [
                {
                    "internalType": "bool",
                    "name": "_state",
                    "type": "bool"
                }
            ],
            "name": "setRevealed",
            "outputs": [],
            "stateMutability": "nonpayable",
            "type": "function"
        },
        {
            "inputs": [
                {
                    "internalType": "address[]",
                    "name": "addresses",
                    "type": "address[]"
                },
                {
                    "internalType": "uint256",
                    "name": "_numAllowedToMint",
                    "type": "uint256"
                }
            ],
            "name": "setWhiteList",
            "outputs": [],
            "stateMutability": "nonpayable",
            "type": "function"
        },
        {
            "inputs": [
                {
                    "internalType": "bool",
                    "name": "_state",
                    "type": "bool"
                }
            ],
            "name": "setWhiteListSale",
            "outputs": [],
            "stateMutability": "nonpayable",
            "type": "function"
        },
        {
            "inputs": [
                {
                    "internalType": "bytes4",
                    "name": "interfaceId",
                    "type": "bytes4"
                }
            ],
            "name": "supportsInterface",
            "outputs": [
                {
                    "internalType": "bool",
                    "name": "",
                    "type": "bool"
                }
            ],
            "stateMutability": "view",
            "type": "function"
        },
        {
            "inputs": [],
            "name": "symbol",
            "outputs": [
                {
                    "internalType": "string",
                    "name": "",
                    "type": "string"
                }
            ],
            "stateMutability": "view",
            "type": "function"
        },
        {
            "inputs": [
                {
                    "internalType": "uint256",
                    "name": "index",
                    "type": "uint256"
                }
            ],
            "name": "tokenByIndex",
            "outputs": [
                {
                    "internalType": "uint256",
                    "name": "",
                    "type": "uint256"
                }
            ],
            "stateMutability": "view",
            "type": "function"
        },
        {
            "inputs": [
                {
                    "internalType": "address",
                    "name": "owner",
                    "type": "address"
                },
                {
                    "internalType": "uint256",
                    "name": "index",
                    "type": "uint256"
                }
            ],
            "name": "tokenOfOwnerByIndex",
            "outputs": [
                {
                    "internalType": "uint256",
                    "name": "",
                    "type": "uint256"
                }
            ],
            "stateMutability": "view",
            "type": "function"
        },
        {
            "inputs": [
                {
                    "internalType": "uint256",
                    "name": "tokenId",
                    "type": "uint256"
                }
            ],
            "name": "tokenURI",
            "outputs": [
                {
                    "internalType": "string",
                    "name": "",
                    "type": "string"
                }
            ],
            "stateMutability": "view",
            "type": "function"
        },
        {
            "inputs": [
                {
                    "internalType": "address",
                    "name": "_userAddress",
                    "type": "address"
                }
            ],
            "name": "tokensOwnedBy",
            "outputs": [
                {
                    "internalType": "uint256[]",
                    "name": "",
                    "type": "uint256[]"
                }
            ],
            "stateMutability": "view",
            "type": "function"
        },
        {
            "inputs": [],
            "name": "totalSupply",
            "outputs": [
                {
                    "internalType": "uint256",
                    "name": "",
                    "type": "uint256"
                }
            ],
            "stateMutability": "view",
            "type": "function"
        },
        {
            "inputs": [
                {
                    "internalType": "address",
                    "name": "from",
                    "type": "address"
                },
                {
                    "internalType": "address",
                    "name": "to",
                    "type": "address"
                },
                {
                    "internalType": "uint256",
                    "name": "tokenId",
                    "type": "uint256"
                }
            ],
            "name": "transferFrom",
            "outputs": [],
            "stateMutability": "nonpayable",
            "type": "function"
        },
        {
            "inputs": [
                {
                    "internalType": "address",
                    "name": "newOwner",
                    "type": "address"
                }
            ],
            "name": "transferOwnership",
            "outputs": [],
            "stateMutability": "nonpayable",
            "type": "function"
        },
        {
            "inputs": [],
            "name": "whitelistSaleIsActive",
            "outputs": [
                {
                    "internalType": "bool",
                    "name": "",
                    "type": "bool"
                }
            ],
            "stateMutability": "view",
            "type": "function"
        },
        {
            "inputs": [],
            "name": "withdrawAll",
            "outputs": [],
            "stateMutability": "nonpayable",
            "type": "function"
        }
    ],
    "bytecode": "0x6080604052600c80546001600160881b0319166a03e8002386f26fc1000000179055600e805462ffffff191690556104e86011553480156200004057600080fd5b506040516200324b3803806200324b8339810160408190526200006391620008e5565b60408051808201825260078152662237b6383434b760c91b6020808301918252835180850190945260048452631113919560e21b908401528151919291620000ae916000916200080e565b508051620000c49060019060208401906200080e565b505050620000e1620000db6200010060201b60201c565b62000104565b620000ec8162000156565b620000f9336001620001cf565b5062000b12565b3390565b600a80546001600160a01b038381166001600160a01b0319831681179093556040519116919082907f8be0079c531659141344cd1fd0a4f28419497f9722a3daafe3b4186f6b6457e090600090a35050565b600a546001600160a01b03163314620001b65760405162461bcd60e51b815260206004820181905260248201527f4f776e61626c653a2063616c6c6572206973206e6f7420746865206f776e657260448201526064015b60405180910390fd5b8051620001cb90600b9060208401906200080e565b5050565b620001cb828260405180602001604052806000815250620001f160201b60201c565b620001fd838362000230565b6200020c600084848462000388565b6200022b5760405162461bcd60e51b8152600401620001ad90620009ef565b505050565b6001600160a01b038216620002885760405162461bcd60e51b815260206004820181905260248201527f4552433732313a206d696e7420746f20746865207a65726f20616464726573736044820152606401620001ad565b6000818152600260205260409020546001600160a01b031615620002ef5760405162461bcd60e51b815260206004820152601c60248201527f4552433732313a20746f6b656e20616c7265616479206d696e746564000000006044820152606401620001ad565b620002fd60008383620004b8565b6001600160a01b03821660009081526003602052604081208054600192906200032890849062000a41565b909155505060008181526002602052604080822080546001600160a01b0319166001600160a01b03861690811790915590518392907fddf252ad1be2c89b69c2b068fc378daa952ba7f163c4a11628f55a4df523b3ef908290a4620001cb565b6000620003a9846001600160a01b03166200059a60201b620014e41760201c565b15620004ac57604051630a85bd0160e11b81526001600160a01b0385169063150b7a0290620003e390339089908890889060040162000999565b602060405180830381600087803b158015620003fe57600080fd5b505af192505050801562000431575060408051601f3d908101601f191682019092526200042e91810190620008b4565b60015b62000491573d80801562000462576040519150601f19603f3d011682016040523d82523d6000602084013e62000467565b606091505b508051620004895760405162461bcd60e51b8152600401620001ad90620009ef565b805181602001fd5b6001600160e01b031916630a85bd0160e11b149050620004b0565b5060015b949350505050565b620004d08383836200022b60201b620008fe1760201c565b6001600160a01b0383166200052e576200052881600880546000838152600960205260408120829055600182018355919091527ff3f7a9fe364faab93b216da50a3214154f22a0a2b415b23a84c8169e8b636ee30155565b62000554565b816001600160a01b0316836001600160a01b0316146200055457620005548382620005a9565b6001600160a01b03821662000574576200056e8162000656565b6200022b565b826001600160a01b0316826001600160a01b0316146200022b576200022b828262000734565b6001600160a01b03163b151590565b60006001620005c3846200078560201b62000be31760201c565b620005cf919062000a5c565b60008381526007602052604090205490915080821462000623576001600160a01b03841660009081526006602090815260408083208584528252808320548484528184208190558352600790915290208190555b5060009182526007602090815260408084208490556001600160a01b039094168352600681528383209183525290812055565b6008546000906200066a9060019062000a5c565b60008381526009602052604081205460088054939450909284908110620006a157634e487b7160e01b600052603260045260246000fd5b906000526020600020015490508060088381548110620006d157634e487b7160e01b600052603260045260246000fd5b60009182526020808320909101929092558281526009909152604080822084905585825281205560088054806200071857634e487b7160e01b600052603160045260246000fd5b6001900381819060005260206000200160009055905550505050565b60006200074c836200078560201b62000be31760201c565b6001600160a01b039093166000908152600660209081526040808320868452825280832085905593825260079052919091209190915550565b60006001600160a01b038216620007f25760405162461bcd60e51b815260206004820152602a60248201527f4552433732313a2062616c616e636520717565727920666f7220746865207a65604482015269726f206164647265737360b01b6064820152608401620001ad565b506001600160a01b031660009081526003602052604090205490565b8280546200081c9062000aa9565b90600052602060002090601f0160209004810192826200084057600085556200088b565b82601f106200085b57805160ff19168380011785556200088b565b828001600101855582156200088b579182015b828111156200088b5782518255916020019190600101906200086e565b50620008999291506200089d565b5090565b5b808211156200089957600081556001016200089e565b600060208284031215620008c6578081fd5b81516001600160e01b031981168114620008de578182fd5b9392505050565b600060208284031215620008f7578081fd5b81516001600160401b03808211156200090e578283fd5b818401915084601f83011262000922578283fd5b81518181111562000937576200093762000afc565b604051601f8201601f19908116603f0116810190838211818310171562000962576200096262000afc565b816040528281528760208487010111156200097b578586fd5b6200098e83602083016020880162000a76565b979650505050505050565b600060018060a01b038087168352808616602084015250836040830152608060608301528251806080840152620009d88160a085016020870162000a76565b601f01601f19169190910160a00195945050505050565b60208082526032908201527f4552433732313a207472616e7366657220746f206e6f6e20455243373231526560408201527131b2b4bb32b91034b6b83632b6b2b73a32b960711b606082015260800190565b6000821982111562000a575762000a5762000ae6565b500190565b60008282101562000a715762000a7162000ae6565b500390565b60005b8381101562000a9357818101518382015260200162000a79565b8381111562000aa3576000848401525b50505050565b600181811c9082168062000abe57607f821691505b6020821081141562000ae057634e487b7160e01b600052602260045260246000fd5b50919050565b634e487b7160e01b600052601160045260246000fd5b634e487b7160e01b600052604160045260246000fd5b6127298062000b226000396000f3fe6080604052600436106101aa5760003560e01c806301ffc9a7146101af57806302329a29146101e457806306fdde0314610206578063081812fc14610228578063095ea7b31461026057806310b5454d1461028057806313faede6146102a057806318160ddd146102dd57806323b872dd146102fc5780632f745c591461031c57806342842e0e1461033c578063443673481461035c57806345e520f9146103725780634f6ccce71461039257806351830227146103b257806355f804b3146103cc5780635c975abb146103ec5780636352211e146104065780636e4600141461042657806370a0823114610446578063715018a614610466578063853828b61461047b5780638da5cb5b1461049057806395d89b41146104a55780639b9a988f146104ba5780639c4f3d0a146104d9578063a22cb465146104f9578063abc45af814610519578063b88d4fde14610539578063c87b56dd14610559578063d5abeb0114610579578063d77f9982146105a0578063e0a80853146105c0578063e985e9c5146105e0578063ea66aeb314610600578063ec19ab021461062d578063f2fde38b14610640575b600080fd5b3480156101bb57600080fd5b506101cf6101ca3660046122c7565b610660565b60405190151581526020015b60405180910390f35b3480156101f057600080fd5b506102046101ff3660046122ad565b61068d565b005b34801561021257600080fd5b5061021b6106d8565b6040516101db919061249e565b34801561023457600080fd5b50610248610243366004612344565b61076a565b6040516001600160a01b0390911681526020016101db565b34801561026c57600080fd5b5061020461027b36600461220f565b6107f2565b34801561028c57600080fd5b50600e546101cf9062010000900460ff1681565b3480156102ac57600080fd5b50600c546102c59061010090046001600160401b031681565b6040516001600160401b0390911681526020016101db565b3480156102e957600080fd5b506008545b6040519081526020016101db565b34801561030857600080fd5b50610204610317366004612133565b610903565b34801561032857600080fd5b506102ee61033736600461220f565b610934565b34801561034857600080fd5b50610204610357366004612133565b6109ca565b34801561036857600080fd5b506102ee600d5481565b34801561037e57600080fd5b5061020461038d36600461235c565b6109e5565b34801561039e57600080fd5b506102ee6103ad366004612344565b610a3c565b3480156103be57600080fd5b50600c546101cf9060ff1681565b3480156103d857600080fd5b506102046103e73660046122ff565b610add565b3480156103f857600080fd5b50600e546101cf9060ff1681565b34801561041257600080fd5b50610248610421366004612344565b610b23565b34801561043257600080fd5b506102046104413660046122ad565b610b9a565b34801561045257600080fd5b506102ee6104613660046120e0565b610be3565b34801561047257600080fd5b50610204610c6a565b34801561048757600080fd5b50610204610ca5565b34801561049c57600080fd5b50610248610d66565b3480156104b157600080fd5b5061021b610d75565b3480156104c657600080fd5b50600e546101cf90610100900460ff1681565b3480156104e557600080fd5b506102046104f436600461235c565b610d84565b34801561050557600080fd5b506102046105143660046121e6565b610ddf565b34801561052557600080fd5b506102046105343660046122ad565b610dea565b34801561054557600080fd5b5061020461055436600461216e565b610e35565b34801561056557600080fd5b5061021b610574366004612344565b610e6d565b34801561058557600080fd5b50600c546102c590600160481b90046001600160401b031681565b3480156105ac57600080fd5b506102046105bb366004612238565b610f57565b3480156105cc57600080fd5b506102046105db3660046122ad565b610ffc565b3480156105ec57600080fd5b506101cf6105fb366004612101565b61103e565b34801561060c57600080fd5b5061062061061b3660046120e0565b61106c565b6040516101db919061245a565b61020461063b366004612344565b6110d8565b34801561064c57600080fd5b5061020461065b3660046120e0565b611447565b60006001600160e01b0319821663780e9d6360e01b14806106855750610685826114f3565b90505b919050565b33610696610d66565b6001600160a01b0316146106c55760405162461bcd60e51b81526004016106bc90612503565b60405180910390fd5b600e805460ff1916911515919091179055565b6060600080546106e790612617565b80601f016020809104026020016040519081016040528092919081815260200182805461071390612617565b80156107605780601f1061073557610100808354040283529160200191610760565b820191906000526020600020905b81548152906001019060200180831161074357829003601f168201915b5050505050905090565b600061077582611543565b6107d65760405162461bcd60e51b815260206004820152602c60248201527f4552433732313a20617070726f76656420717565727920666f72206e6f6e657860448201526b34b9ba32b73a103a37b5b2b760a11b60648201526084016106bc565b506000908152600460205260409020546001600160a01b031690565b60006107fd82610b23565b9050806001600160a01b0316836001600160a01b0316141561086b5760405162461bcd60e51b815260206004820152602160248201527f4552433732313a20617070726f76616c20746f2063757272656e74206f776e656044820152603960f91b60648201526084016106bc565b336001600160a01b0382161480610887575061088781336105fb565b6108f45760405162461bcd60e51b815260206004820152603860248201527f4552433732313a20617070726f76652063616c6c6572206973206e6f74206f776044820152771b995c881b9bdc88185c1c1c9bdd995908199bdc88185b1b60421b60648201526084016106bc565b6108fe8383611560565b505050565b61090d33826115ce565b6109295760405162461bcd60e51b81526004016106bc90612538565b6108fe838383611698565b600061093f83610be3565b82106109a15760405162461bcd60e51b815260206004820152602b60248201527f455243373231456e756d657261626c653a206f776e657220696e646578206f7560448201526a74206f6620626f756e647360a81b60648201526084016106bc565b506001600160a01b03919091166000908152600660209081526040808320938352929052205490565b6108fe83838360405180602001604052806000815250610e35565b336109ee610d66565b6001600160a01b031614610a145760405162461bcd60e51b81526004016106bc90612503565b600c80546001600160401b0390921661010002610100600160481b0319909216919091179055565b6000610a4760085490565b8210610aaa5760405162461bcd60e51b815260206004820152602c60248201527f455243373231456e756d657261626c653a20676c6f62616c20696e646578206f60448201526b7574206f6620626f756e647360a01b60648201526084016106bc565b60088281548110610acb57634e487b7160e01b600052603260045260246000fd5b90600052602060002001549050919050565b33610ae6610d66565b6001600160a01b031614610b0c5760405162461bcd60e51b81526004016106bc90612503565b8051610b1f90600b906020840190611fab565b5050565b6000818152600260205260408120546001600160a01b0316806106855760405162461bcd60e51b815260206004820152602960248201527f4552433732313a206f776e657220717565727920666f72206e6f6e657869737460448201526832b73a103a37b5b2b760b91b60648201526084016106bc565b33610ba3610d66565b6001600160a01b031614610bc95760405162461bcd60e51b81526004016106bc90612503565b600e80549115156101000261ff0019909216919091179055565b60006001600160a01b038216610c4e5760405162461bcd60e51b815260206004820152602a60248201527f4552433732313a2062616c616e636520717565727920666f7220746865207a65604482015269726f206164647265737360b01b60648201526084016106bc565b506001600160a01b031660009081526003602052604090205490565b33610c73610d66565b6001600160a01b031614610c995760405162461bcd60e51b81526004016106bc90612503565b610ca3600061182d565b565b33610cae610d66565b6001600160a01b031614610cd45760405162461bcd60e51b81526004016106bc90612503565b604051600090339047908381818185875af1925050503d8060008114610d16576040519150601f19603f3d011682016040523d82523d6000602084013e610d1b565b606091505b5050905080610d635760405162461bcd60e51b81526020600482015260146024820152732330b4b632b2103a379029b2b7321022ba3432b960611b60448201526064016106bc565b50565b600a546001600160a01b031690565b6060600180546106e790612617565b33610d8d610d66565b6001600160a01b031614610db35760405162461bcd60e51b81526004016106bc90612503565b600c80546001600160401b03909216600160481b02600160481b600160881b0319909216919091179055565b610b1f33838361187f565b33610df3610d66565b6001600160a01b031614610e195760405162461bcd60e51b81526004016106bc90612503565b600e8054911515620100000262ff000019909216919091179055565b610e3f33836115ce565b610e5b5760405162461bcd60e51b81526004016106bc90612538565b610e678484848461194a565b50505050565b6060610e7882611543565b610eb95760405162461bcd60e51b81526020600482015260126024820152712737b71022bc34b9ba32b73a102a37b5b2b760711b60448201526064016106bc565b6000610ec361197d565b600c5490915060ff1615610f22576000815111610eef5760405180602001604052806000815250610f1a565b80610ef98461198c565b604051602001610f0a9291906123af565b6040516020818303038152906040525b915050610688565b6000815111610f405760405180602001604052806000815250610f1a565b80604051602001610f0a91906123ee565b50919050565b33610f60610d66565b6001600160a01b031614610f865760405162461bcd60e51b81526004016106bc90612503565b600d81905560005b82811015610e67578160106000868685818110610fbb57634e487b7160e01b600052603260045260246000fd5b9050602002016020810190610fd091906120e0565b6001600160a01b0316815260208101919091526040016000205580610ff48161264c565b915050610f8e565b33611005610d66565b6001600160a01b03161461102b5760405162461bcd60e51b81526004016106bc90612503565b600c805460ff1916911515919091179055565b6001600160a01b03918216600090815260056020908152604080832093909416825291909152205460ff1690565b6001600160a01b0381166000908152600f60209081526040918290208054835181840281018401909452808452606093928301828280156110cc57602002820191906000526020600020905b8154815260200190600101908083116110b8575b50505050509050919050565b60006110e360085490565b600e5490915062010000900460ff16806111045750600e54610100900460ff165b6111455760405162461bcd60e51b81526020600482015260126024820152716e6f7420726561647920666f722073616c6560701b60448201526064016106bc565b600e5460ff16156111985760405162461bcd60e51b815260206004820152601f60248201527f416e6f74686572205472616e73616374696f6e20696e2050726f67726573730060448201526064016106bc565b600c54600160481b90046001600160401b03166111b58383612589565b11156111fa5760405162461bcd60e51b815260206004820152601460248201527314dd5c1c1b1e48131a5b5a5d0814995858da195960621b60448201526064016106bc565b611202610d66565b6001600160a01b0316336001600160a01b03161461127957600c5461123690839061010090046001600160401b03166125b5565b3410156112795760405162461bcd60e51b81526020600482015260116024820152704e6f7420456e6f75676820546f6b656e7360781b60448201526064016106bc565b600e54610100900460ff16156112ed5760015b8281116112e7576112a6336112a18385612589565b611aa6565b336000908152600f602052604090206112bf8284612589565b81546001810183556000928352602090922090910155806112df8161264c565b91505061128c565b50610b1f565b600e5462010000900460ff1615610b1f57336000908152601060205260409020546113535760405162461bcd60e51b81526020600482015260166024820152752737ba1030903bb434ba32b634b9ba32b2103ab9b2b960511b60448201526064016106bc565b600d54826113603361106c565b5161136b9190612589565b11156113c55760405162461bcd60e51b815260206004820152602360248201527f43616e2774206d696e74206d6f7265207468616e20616c6c6f77656420616d6f6044820152621d5b9d60ea1b60648201526084016106bc565b60015b82811161141e576113dd336112a18385612589565b336000908152600f602052604090206113f68284612589565b81546001810183556000928352602090922090910155806114168161264c565b9150506113c8565b50336000908152601060205260408120805484929061143e9084906125d4565b90915550505050565b33611450610d66565b6001600160a01b0316146114765760405162461bcd60e51b81526004016106bc90612503565b6001600160a01b0381166114db5760405162461bcd60e51b815260206004820152602660248201527f4f776e61626c653a206e6577206f776e657220697320746865207a65726f206160448201526564647265737360d01b60648201526084016106bc565b610d638161182d565b6001600160a01b03163b151590565b60006001600160e01b031982166380ac58cd60e01b148061152457506001600160e01b03198216635b5e139f60e01b145b8061068557506301ffc9a760e01b6001600160e01b0319831614610685565b6000908152600260205260409020546001600160a01b0316151590565b600081815260046020526040902080546001600160a01b0319166001600160a01b038416908117909155819061159582610b23565b6001600160a01b03167f8c5be1e5ebec7d5bd14f71427d1e84f3dd0314c0f7b2291e5b200ac8c7c3b92560405160405180910390a45050565b60006115d982611543565b61163a5760405162461bcd60e51b815260206004820152602c60248201527f4552433732313a206f70657261746f7220717565727920666f72206e6f6e657860448201526b34b9ba32b73a103a37b5b2b760a11b60648201526084016106bc565b600061164583610b23565b9050806001600160a01b0316846001600160a01b031614806116805750836001600160a01b03166116758461076a565b6001600160a01b0316145b806116905750611690818561103e565b949350505050565b826001600160a01b03166116ab82610b23565b6001600160a01b03161461170f5760405162461bcd60e51b815260206004820152602560248201527f4552433732313a207472616e736665722066726f6d20696e636f72726563742060448201526437bbb732b960d91b60648201526084016106bc565b6001600160a01b0382166117715760405162461bcd60e51b8152602060048201526024808201527f4552433732313a207472616e7366657220746f20746865207a65726f206164646044820152637265737360e01b60648201526084016106bc565b61177c838383611ac0565b611787600082611560565b6001600160a01b03831660009081526003602052604081208054600192906117b09084906125d4565b90915550506001600160a01b03821660009081526003602052604081208054600192906117de908490612589565b909155505060008181526002602052604080822080546001600160a01b0319166001600160a01b0386811691821790925591518493918716916000805160206126d483398151915291a46108fe565b600a80546001600160a01b038381166001600160a01b0319831681179093556040519116919082907f8be0079c531659141344cd1fd0a4f28419497f9722a3daafe3b4186f6b6457e090600090a35050565b816001600160a01b0316836001600160a01b031614156118dd5760405162461bcd60e51b815260206004820152601960248201527822a9219b99189d1030b8383937bb32903a379031b0b63632b960391b60448201526064016106bc565b6001600160a01b03838116600081815260056020908152604080832094871680845294825291829020805460ff191686151590811790915591519182527f17307eab39ab6107e8899845ad3d59bd9653f200f220920489ca2b5937696c31910160405180910390a3505050565b611955848484611698565b61196184848484611b7d565b610e675760405162461bcd60e51b81526004016106bc906124b1565b6060600b80546106e790612617565b6060816119b157506040805180820190915260018152600360fc1b6020820152610688565b8160005b81156119db57806119c58161264c565b91506119d49050600a836125a1565b91506119b5565b6000816001600160401b03811115611a0357634e487b7160e01b600052604160045260246000fd5b6040519080825280601f01601f191660200182016040528015611a2d576020820181803683370190505b5090505b841561169057611a426001836125d4565b9150611a4f600a86612667565b611a5a906030612589565b60f81b818381518110611a7d57634e487b7160e01b600052603260045260246000fd5b60200101906001600160f81b031916908160001a905350611a9f600a866125a1565b9450611a31565b610b1f828260405180602001604052806000815250611c91565b6001600160a01b038316611b1b57611b1681600880546000838152600960205260408120829055600182018355919091527ff3f7a9fe364faab93b216da50a3214154f22a0a2b415b23a84c8169e8b636ee30155565b611b3e565b816001600160a01b0316836001600160a01b031614611b3e57611b3e8382611cc4565b6001600160a01b038216611b5a57611b5581611d61565b6108fe565b826001600160a01b0316826001600160a01b0316146108fe576108fe8282611e3a565b6000611b91846001600160a01b03166114e4565b15611c8657604051630a85bd0160e11b81526001600160a01b0385169063150b7a0290611bc890339089908890889060040161241d565b602060405180830381600087803b158015611be257600080fd5b505af1925050508015611c12575060408051601f3d908101601f19168201909252611c0f918101906122e3565b60015b611c6c573d808015611c40576040519150601f19603f3d011682016040523d82523d6000602084013e611c45565b606091505b508051611c645760405162461bcd60e51b81526004016106bc906124b1565b805181602001fd5b6001600160e01b031916630a85bd0160e11b149050611690565b506001949350505050565b611c9b8383611e7e565b611ca86000848484611b7d565b6108fe5760405162461bcd60e51b81526004016106bc906124b1565b60006001611cd184610be3565b611cdb91906125d4565b600083815260076020526040902054909150808214611d2e576001600160a01b03841660009081526006602090815260408083208584528252808320548484528184208190558352600790915290208190555b5060009182526007602090815260408084208490556001600160a01b039094168352600681528383209183525290812055565b600854600090611d73906001906125d4565b60008381526009602052604081205460088054939450909284908110611da957634e487b7160e01b600052603260045260246000fd5b906000526020600020015490508060088381548110611dd857634e487b7160e01b600052603260045260246000fd5b6000918252602080832090910192909255828152600990915260408082208490558582528120556008805480611e1e57634e487b7160e01b600052603160045260246000fd5b6001900381819060005260206000200160009055905550505050565b6000611e4583610be3565b6001600160a01b039093166000908152600660209081526040808320868452825280832085905593825260079052919091209190915550565b6001600160a01b038216611ed45760405162461bcd60e51b815260206004820181905260248201527f4552433732313a206d696e7420746f20746865207a65726f206164647265737360448201526064016106bc565b611edd81611543565b15611f295760405162461bcd60e51b815260206004820152601c60248201527b115490cdcc8c4e881d1bdad95b88185b1c9958591e481b5a5b9d195960221b60448201526064016106bc565b611f3560008383611ac0565b6001600160a01b0382166000908152600360205260408120805460019290611f5e908490612589565b909155505060008181526002602052604080822080546001600160a01b0319166001600160a01b03861690811790915590518392906000805160206126d4833981519152908290a4610b1f565b828054611fb790612617565b90600052602060002090601f016020900481019282611fd9576000855561201f565b82601f10611ff257805160ff191683800117855561201f565b8280016001018555821561201f579182015b8281111561201f578251825591602001919060010190612004565b5061202b92915061202f565b5090565b5b8082111561202b5760008155600101612030565b60006001600160401b038084111561205e5761205e6126a7565b604051601f8501601f19908116603f01168101908282118183101715612086576120866126a7565b8160405280935085815286868601111561209f57600080fd5b858560208301376000602087830101525050509392505050565b80356001600160a01b038116811461068857600080fd5b8035801515811461068857600080fd5b6000602082840312156120f1578081fd5b6120fa826120b9565b9392505050565b60008060408385031215612113578081fd5b61211c836120b9565b915061212a602084016120b9565b90509250929050565b600080600060608486031215612147578081fd5b612150846120b9565b925061215e602085016120b9565b9150604084013590509250925092565b60008060008060808587031215612183578081fd5b61218c856120b9565b935061219a602086016120b9565b92506040850135915060608501356001600160401b038111156121bb578182fd5b8501601f810187136121cb578182fd5b6121da87823560208401612044565b91505092959194509250565b600080604083850312156121f8578182fd5b612201836120b9565b915061212a602084016120d0565b60008060408385031215612221578182fd5b61222a836120b9565b946020939093013593505050565b60008060006040848603121561224c578283fd5b83356001600160401b0380821115612262578485fd5b818601915086601f830112612275578485fd5b813581811115612283578586fd5b8760208260051b8501011115612297578586fd5b6020928301989097509590910135949350505050565b6000602082840312156122be578081fd5b6120fa826120d0565b6000602082840312156122d8578081fd5b81356120fa816126bd565b6000602082840312156122f4578081fd5b81516120fa816126bd565b600060208284031215612310578081fd5b81356001600160401b03811115612325578182fd5b8201601f81018413612335578182fd5b61169084823560208401612044565b600060208284031215612355578081fd5b5035919050565b60006020828403121561236d578081fd5b81356001600160401b03811681146120fa578182fd5b6000815180845261239b8160208601602086016125eb565b601f01601f19169290920160200192915050565b600083516123c18184602088016125eb565b8351908301906123d58183602088016125eb565b64173539b7b760d91b9101908152600501949350505050565b600082516124008184602087016125eb565b6a2434b23232b7173539b7b760a91b920191825250600b01919050565b6001600160a01b038581168252841660208201526040810183905260806060820181905260009061245090830184612383565b9695505050505050565b6020808252825182820181905260009190848201906040850190845b8181101561249257835183529284019291840191600101612476565b50909695505050505050565b6000602082526120fa6020830184612383565b60208082526032908201527f4552433732313a207472616e7366657220746f206e6f6e20455243373231526560408201527131b2b4bb32b91034b6b83632b6b2b73a32b960711b606082015260800190565b6020808252818101527f4f776e61626c653a2063616c6c6572206973206e6f7420746865206f776e6572604082015260600190565b60208082526031908201527f4552433732313a207472616e736665722063616c6c6572206973206e6f74206f6040820152701ddb995c881b9bdc88185c1c1c9bdd9959607a1b606082015260800190565b6000821982111561259c5761259c61267b565b500190565b6000826125b0576125b0612691565b500490565b60008160001904831182151516156125cf576125cf61267b565b500290565b6000828210156125e6576125e661267b565b500390565b60005b838110156126065781810151838201526020016125ee565b83811115610e675750506000910152565b600181811c9082168061262b57607f821691505b60208210811415610f5157634e487b7160e01b600052602260045260246000fd5b60006000198214156126605761266061267b565b5060010190565b60008261267657612676612691565b500690565b634e487b7160e01b600052601160045260246000fd5b634e487b7160e01b600052601260045260246000fd5b634e487b7160e01b600052604160045260246000fd5b6001600160e01b031981168114610d6357600080fdfeddf252ad1be2c89b69c2b068fc378daa952ba7f163c4a11628f55a4df523b3efa2646970667358221220f0e7c25bf879953b34c6f4a59483910f896166c9ec3ea9777de2129cf85febfc64736f6c63430008030033",
    "linkReferences": {},
    "deployedLinkReferences": {}
}